{
  "_format": "hh-sol-artifact-1",
  "contractName": "Floppy",
  "sourceName": "contracts/Floppy.sol",
  "abi": [
    {
      "inputs": [],
      "stateMutability": "nonpayable",
      "type": "constructor"
    },
    {
      "anonymous": false,
      "inputs": [
        {
          "indexed": true,
          "internalType": "address",
          "name": "owner",
          "type": "address"
        },
        {
          "indexed": true,
          "internalType": "address",
          "name": "spender",
          "type": "address"
        },
        {
          "indexed": false,
          "internalType": "uint256",
          "name": "value",
          "type": "uint256"
        }
      ],
      "name": "Approval",
      "type": "event"
    },
    {
      "anonymous": false,
      "inputs": [
        {
          "indexed": true,
          "internalType": "address",
          "name": "previousOwner",
          "type": "address"
        },
        {
          "indexed": true,
          "internalType": "address",
          "name": "newOwner",
          "type": "address"
        }
      ],
      "name": "OwnershipTransferred",
      "type": "event"
    },
    {
      "anonymous": false,
      "inputs": [
        {
          "indexed": true,
          "internalType": "address",
          "name": "from",
          "type": "address"
        },
        {
          "indexed": true,
          "internalType": "address",
          "name": "to",
          "type": "address"
        },
        {
          "indexed": false,
          "internalType": "uint256",
          "name": "value",
          "type": "uint256"
        }
      ],
      "name": "Transfer",
      "type": "event"
    },
    {
      "inputs": [
        {
          "internalType": "address",
          "name": "owner",
          "type": "address"
        },
        {
          "internalType": "address",
          "name": "spender",
          "type": "address"
        }
      ],
      "name": "allowance",
      "outputs": [
        {
          "internalType": "uint256",
          "name": "",
          "type": "uint256"
        }
      ],
      "stateMutability": "view",
      "type": "function"
    },
    {
      "inputs": [
        {
          "internalType": "address",
          "name": "spender",
          "type": "address"
        },
        {
          "internalType": "uint256",
          "name": "amount",
          "type": "uint256"
        }
      ],
      "name": "approve",
      "outputs": [
        {
          "internalType": "bool",
          "name": "",
          "type": "bool"
        }
      ],
      "stateMutability": "nonpayable",
      "type": "function"
    },
    {
      "inputs": [
        {
          "internalType": "address",
          "name": "account",
          "type": "address"
        }
      ],
      "name": "balanceOf",
      "outputs": [
        {
          "internalType": "uint256",
          "name": "",
          "type": "uint256"
        }
      ],
      "stateMutability": "view",
      "type": "function"
    },
    {
      "inputs": [
        {
          "internalType": "uint256",
          "name": "amount",
          "type": "uint256"
        }
      ],
      "name": "burn",
      "outputs": [],
      "stateMutability": "nonpayable",
      "type": "function"
    },
    {
      "inputs": [
        {
          "internalType": "address",
          "name": "account",
          "type": "address"
        },
        {
          "internalType": "uint256",
          "name": "amount",
          "type": "uint256"
        }
      ],
      "name": "burnFrom",
      "outputs": [],
      "stateMutability": "nonpayable",
      "type": "function"
    },
    {
      "inputs": [],
      "name": "decimals",
      "outputs": [
        {
          "internalType": "uint8",
          "name": "",
          "type": "uint8"
        }
      ],
      "stateMutability": "view",
      "type": "function"
    },
    {
      "inputs": [
        {
          "internalType": "address",
          "name": "spender",
          "type": "address"
        },
        {
          "internalType": "uint256",
          "name": "subtractedValue",
          "type": "uint256"
        }
      ],
      "name": "decreaseAllowance",
      "outputs": [
        {
          "internalType": "bool",
          "name": "",
          "type": "bool"
        }
      ],
      "stateMutability": "nonpayable",
      "type": "function"
    },
    {
      "inputs": [],
      "name": "getNameFromContracts",
      "outputs": [
        {
          "internalType": "string",
          "name": "name",
          "type": "string"
        }
      ],
      "stateMutability": "pure",
      "type": "function"
    },
    {
      "inputs": [
        {
          "internalType": "address",
          "name": "spender",
          "type": "address"
        },
        {
          "internalType": "uint256",
          "name": "addedValue",
          "type": "uint256"
        }
      ],
      "name": "increaseAllowance",
      "outputs": [
        {
          "internalType": "bool",
          "name": "",
          "type": "bool"
        }
      ],
      "stateMutability": "nonpayable",
      "type": "function"
    },
    {
      "inputs": [
        {
          "internalType": "address",
          "name": "to",
          "type": "address"
        },
        {
          "internalType": "uint256",
          "name": "amount",
          "type": "uint256"
        }
      ],
      "name": "mint",
      "outputs": [],
      "stateMutability": "nonpayable",
      "type": "function"
    },
    {
      "inputs": [],
      "name": "name",
      "outputs": [
        {
          "internalType": "string",
          "name": "",
          "type": "string"
        }
      ],
      "stateMutability": "view",
      "type": "function"
    },
    {
      "inputs": [],
      "name": "owner",
      "outputs": [
        {
          "internalType": "address",
          "name": "",
          "type": "address"
        }
      ],
      "stateMutability": "view",
      "type": "function"
    },
    {
      "inputs": [],
      "name": "renounceOwnership",
      "outputs": [],
      "stateMutability": "nonpayable",
      "type": "function"
    },
    {
      "inputs": [],
      "name": "symbol",
      "outputs": [
        {
          "internalType": "string",
          "name": "",
          "type": "string"
        }
      ],
      "stateMutability": "view",
      "type": "function"
    },
    {
      "inputs": [],
      "name": "totalSupply",
      "outputs": [
        {
          "internalType": "uint256",
          "name": "",
          "type": "uint256"
        }
      ],
      "stateMutability": "view",
      "type": "function"
    },
    {
      "inputs": [
        {
          "internalType": "address",
          "name": "to",
          "type": "address"
        },
        {
          "internalType": "uint256",
          "name": "amount",
          "type": "uint256"
        }
      ],
      "name": "transfer",
      "outputs": [
        {
          "internalType": "bool",
          "name": "",
          "type": "bool"
        }
      ],
      "stateMutability": "nonpayable",
      "type": "function"
    },
    {
      "inputs": [
        {
          "internalType": "address",
          "name": "from",
          "type": "address"
        },
        {
          "internalType": "address",
          "name": "to",
          "type": "address"
        },
        {
          "internalType": "uint256",
          "name": "amount",
          "type": "uint256"
        }
      ],
      "name": "transferFrom",
      "outputs": [
        {
          "internalType": "bool",
          "name": "",
          "type": "bool"
        }
      ],
      "stateMutability": "nonpayable",
      "type": "function"
    },
    {
      "inputs": [
        {
          "internalType": "address",
          "name": "newOwner",
          "type": "address"
        }
      ],
      "name": "transferOwnership",
      "outputs": [],
      "stateMutability": "nonpayable",
      "type": "function"
    }
  ],
  "bytecode": "0x60806040526012600a62000014919062000794565b640ba43b7400620000269190620007e5565b6006553480156200003657600080fd5b506040518060400160405280600681526020017f466c6f70707900000000000000000000000000000000000000000000000000008152506040518060400160405280600381526020017f464c5000000000000000000000000000000000000000000000000000000000008152508160039081620000b4919062000aa0565b508060049081620000c6919062000aa0565b505050620000e9620000dd6200015e60201b60201c565b6200016660201b60201c565b620001336040518060400160405280601481526020017f6f776e65723a202573206d61786361703a202573000000000000000000000000815250336006546200022c60201b60201c565b6200014733600654620002d560201b60201c565b62000158336200044260201b60201c565b62000eb3565b600033905090565b6000600560009054906101000a900473ffffffffffffffffffffffffffffffffffffffff16905081600560006101000a81548173ffffffffffffffffffffffffffffffffffffffff021916908373ffffffffffffffffffffffffffffffffffffffff1602179055508173ffffffffffffffffffffffffffffffffffffffff168173ffffffffffffffffffffffffffffffffffffffff167f8be0079c531659141344cd1fd0a4f28419497f9722a3daafe3b4186f6b6457e060405160405180910390a35050565b620002d0838383604051602401620002479392919062000c6c565b6040516020818303038152906040527f0d26b925000000000000000000000000000000000000000000000000000000007bffffffffffffffffffffffffffffffffffffffffffffffffffffffff19166020820180517bffffffffffffffffffffffffffffffffffffffffffffffffffffffff8381831617835250505050620004d860201b60201c565b505050565b600073ffffffffffffffffffffffffffffffffffffffff168273ffffffffffffffffffffffffffffffffffffffff160362000347576040517f08c379a00000000000000000000000000000000000000000000000000000000081526004016200033e9062000d00565b60405180910390fd5b6200035b600083836200050160201b60201c565b80600260008282546200036f919062000d22565b92505081905550806000808473ffffffffffffffffffffffffffffffffffffffff1673ffffffffffffffffffffffffffffffffffffffff168152602001908152602001600020600082825401925050819055508173ffffffffffffffffffffffffffffffffffffffff16600073ffffffffffffffffffffffffffffffffffffffff167fddf252ad1be2c89b69c2b068fc378daa952ba7f163c4a11628f55a4df523b3ef8360405162000422919062000d5d565b60405180910390a36200043e600083836200050660201b60201c565b5050565b620004526200050b60201b60201c565b600073ffffffffffffffffffffffffffffffffffffffff168173ffffffffffffffffffffffffffffffffffffffff1603620004c4576040517f08c379a0000000000000000000000000000000000000000000000000000000008152600401620004bb9062000df0565b60405180910390fd5b620004d5816200016660201b60201c565b50565b620004fe81620004f96200059c60201b6200086117620005bd60201b60201c565b60201c565b50565b505050565b505050565b6200051b6200015e60201b60201c565b73ffffffffffffffffffffffffffffffffffffffff1662000541620005d160201b60201c565b73ffffffffffffffffffffffffffffffffffffffff16146200059a576040517f08c379a0000000000000000000000000000000000000000000000000000000008152600401620005919062000e62565b60405180910390fd5b565b60006a636f6e736f6c652e6c6f679050600080835160208501845afa505050565b620005fb60201b620011c617819050919050565b6000600560009054906101000a900473ffffffffffffffffffffffffffffffffffffffff16905090565b6200060562000e84565b565b7f4e487b7100000000000000000000000000000000000000000000000000000000600052601160045260246000fd5b60008160011c9050919050565b6000808291508390505b600185111562000695578086048111156200066d576200066c62000607565b5b60018516156200067d5780820291505b80810290506200068d8562000636565b94506200064d565b94509492505050565b600082620006b0576001905062000783565b81620006c0576000905062000783565b8160018114620006d95760028114620006e4576200071a565b600191505062000783565b60ff841115620006f957620006f862000607565b5b8360020a91508482111562000713576200071262000607565b5b5062000783565b5060208310610133831016604e8410600b8410161715620007545782820a9050838111156200074e576200074d62000607565b5b62000783565b62000763848484600162000643565b925090508184048111156200077d576200077c62000607565b5b81810290505b9392505050565b6000819050919050565b6000620007a1826200078a565b9150620007ae836200078a565b9250620007dd7fffffffffffffffffffffffffffffffffffffffffffffffffffffffffffffffff84846200069e565b905092915050565b6000620007f2826200078a565b9150620007ff836200078a565b92508282026200080f816200078a565b9150828204841483151762000829576200082862000607565b5b5092915050565b600081519050919050565b7f4e487b7100000000000000000000000000000000000000000000000000000000600052604160045260246000fd5b7f4e487b7100000000000000000000000000000000000000000000000000000000600052602260045260246000fd5b60006002820490506001821680620008b257607f821691505b602082108103620008c857620008c76200086a565b5b50919050565b60008190508160005260206000209050919050565b60006020601f8301049050919050565b600082821b905092915050565b600060088302620009327fffffffffffffffffffffffffffffffffffffffffffffffffffffffffffffffff82620008f3565b6200093e8683620008f3565b95508019841693508086168417925050509392505050565b6000819050919050565b6000620009816200097b62000975846200078a565b62000956565b6200078a565b9050919050565b6000819050919050565b6200099d8362000960565b620009b5620009ac8262000988565b84845462000900565b825550505050565b600090565b620009cc620009bd565b620009d981848462000992565b505050565b5b8181101562000a0157620009f5600082620009c2565b600181019050620009df565b5050565b601f82111562000a505762000a1a81620008ce565b62000a2584620008e3565b8101602085101562000a35578190505b62000a4d62000a4485620008e3565b830182620009de565b50505b505050565b600082821c905092915050565b600062000a756000198460080262000a55565b1980831691505092915050565b600062000a90838362000a62565b9150826002028217905092915050565b62000aab8262000830565b67ffffffffffffffff81111562000ac75762000ac66200083b565b5b62000ad3825462000899565b62000ae082828562000a05565b600060209050601f83116001811462000b18576000841562000b03578287015190505b62000b0f858262000a82565b86555062000b7f565b601f19841662000b2886620008ce565b60005b8281101562000b525784890151825560018201915060208501945060208101905062000b2b565b8683101562000b72578489015162000b6e601f89168262000a62565b8355505b6001600288020188555050505b505050505050565b600082825260208201905092915050565b60005b8381101562000bb857808201518184015260208101905062000b9b565b60008484015250505050565b6000601f19601f8301169050919050565b600062000be28262000830565b62000bee818562000b87565b935062000c0081856020860162000b98565b62000c0b8162000bc4565b840191505092915050565b600073ffffffffffffffffffffffffffffffffffffffff82169050919050565b600062000c438262000c16565b9050919050565b62000c558162000c36565b82525050565b62000c66816200078a565b82525050565b6000606082019050818103600083015262000c88818662000bd5565b905062000c99602083018562000c4a565b62000ca8604083018462000c5b565b949350505050565b7f45524332303a206d696e7420746f20746865207a65726f206164647265737300600082015250565b600062000ce8601f8362000b87565b915062000cf58262000cb0565b602082019050919050565b6000602082019050818103600083015262000d1b8162000cd9565b9050919050565b600062000d2f826200078a565b915062000d3c836200078a565b925082820190508082111562000d575762000d5662000607565b5b92915050565b600060208201905062000d74600083018462000c5b565b92915050565b7f4f776e61626c653a206e6577206f776e657220697320746865207a65726f206160008201527f6464726573730000000000000000000000000000000000000000000000000000602082015250565b600062000dd860268362000b87565b915062000de58262000d7a565b604082019050919050565b6000602082019050818103600083015262000e0b8162000dc9565b9050919050565b7f4f776e61626c653a2063616c6c6572206973206e6f7420746865206f776e6572600082015250565b600062000e4a60208362000b87565b915062000e578262000e12565b602082019050919050565b6000602082019050818103600083015262000e7d8162000e3b565b9050919050565b7f4e487b7100000000000000000000000000000000000000000000000000000000600052605160045260246000fd5b611d038062000ec36000396000f3fe608060405234801561001057600080fd5b50600436106101165760003560e01c8063715018a6116100a257806395d89b411161007157806395d89b41146102cf578063a457c2d7146102ed578063a9059cbb1461031d578063dd62ed3e1461034d578063f2fde38b1461037d57610116565b8063715018a61461026d57806379cc67901461027757806382992d4a146102935780638da5cb5b146102b157610116565b8063313ce567116100e9578063313ce567146101b757806339509351146101d557806340c10f191461020557806342966c681461022157806370a082311461023d57610116565b806306fdde031461011b578063095ea7b31461013957806318160ddd1461016957806323b872dd14610187575b600080fd5b610123610399565b6040516101309190611260565b60405180910390f35b610153600480360381019061014e919061131b565b61042b565b6040516101609190611376565b60405180910390f35b61017161044e565b60405161017e91906113a0565b60405180910390f35b6101a1600480360381019061019c91906113bb565b610458565b6040516101ae9190611376565b60405180910390f35b6101bf610487565b6040516101cc919061142a565b60405180910390f35b6101ef60048036038101906101ea919061131b565b610490565b6040516101fc9190611376565b60405180910390f35b61021f600480360381019061021a919061131b565b6104c7565b005b61023b60048036038101906102369190611445565b610534565b005b61025760048036038101906102529190611472565b610548565b60405161026491906113a0565b60405180910390f35b610275610590565b005b610291600480360381019061028c919061131b565b6105a4565b005b61029b6105c4565b6040516102a89190611260565b60405180910390f35b6102b9610601565b6040516102c691906114ae565b60405180910390f35b6102d761062b565b6040516102e49190611260565b60405180910390f35b6103076004803603810190610302919061131b565b6106bd565b6040516103149190611376565b60405180910390f35b6103376004803603810190610332919061131b565b610734565b6040516103449190611376565b60405180910390f35b610367600480360381019061036291906114c9565b610757565b60405161037491906113a0565b60405180910390f35b61039760048036038101906103929190611472565b6107de565b005b6060600380546103a890611538565b80601f01602080910402602001604051908101604052809291908181526020018280546103d490611538565b80156104215780601f106103f657610100808354040283529160200191610421565b820191906000526020600020905b81548152906001019060200180831161040457829003601f168201915b5050505050905090565b600080610436610882565b905061044381858561088a565b600191505092915050565b6000600254905090565b600080610463610882565b9050610470858285610a53565b61047b858585610adf565b60019150509392505050565b60006012905090565b60008061049b610882565b90506104bc8185856104ad8589610757565b6104b79190611598565b61088a565b600191505092915050565b6104cf610d55565b600654816104db61044e565b6104e59190611598565b1115610526576040517f08c379a000000000000000000000000000000000000000000000000000000000815260040161051d90611618565b60405180910390fd5b6105308282610dd3565b5050565b61054561053f610882565b82610f29565b50565b60008060008373ffffffffffffffffffffffffffffffffffffffff1673ffffffffffffffffffffffffffffffffffffffff168152602001908152602001600020549050919050565b610598610d55565b6105a260006110f6565b565b6105b6826105b0610882565b83610a53565b6105c08282610f29565b5050565b60606040518060400160405280600481526020017f4e656d6f00000000000000000000000000000000000000000000000000000000815250905090565b6000600560009054906101000a900473ffffffffffffffffffffffffffffffffffffffff16905090565b60606004805461063a90611538565b80601f016020809104026020016040519081016040528092919081815260200182805461066690611538565b80156106b35780601f10610688576101008083540402835291602001916106b3565b820191906000526020600020905b81548152906001019060200180831161069657829003601f168201915b5050505050905090565b6000806106c8610882565b905060006106d68286610757565b90508381101561071b576040517f08c379a0000000000000000000000000000000000000000000000000000000008152600401610712906116aa565b60405180910390fd5b610728828686840361088a565b60019250505092915050565b60008061073f610882565b905061074c818585610adf565b600191505092915050565b6000600160008473ffffffffffffffffffffffffffffffffffffffff1673ffffffffffffffffffffffffffffffffffffffff16815260200190815260200160002060008373ffffffffffffffffffffffffffffffffffffffff1673ffffffffffffffffffffffffffffffffffffffff16815260200190815260200160002054905092915050565b6107e6610d55565b600073ffffffffffffffffffffffffffffffffffffffff168173ffffffffffffffffffffffffffffffffffffffff1603610855576040517f08c379a000000000000000000000000000000000000000000000000000000000815260040161084c9061173c565b60405180910390fd5b61085e816110f6565b50565b60006a636f6e736f6c652e6c6f679050600080835160208501845afa505050565b600033905090565b600073ffffffffffffffffffffffffffffffffffffffff168373ffffffffffffffffffffffffffffffffffffffff16036108f9576040517f08c379a00000000000000000000000000000000000000000000000000000000081526004016108f0906117ce565b60405180910390fd5b600073ffffffffffffffffffffffffffffffffffffffff168273ffffffffffffffffffffffffffffffffffffffff1603610968576040517f08c379a000000000000000000000000000000000000000000000000000000000815260040161095f90611860565b60405180910390fd5b80600160008573ffffffffffffffffffffffffffffffffffffffff1673ffffffffffffffffffffffffffffffffffffffff16815260200190815260200160002060008473ffffffffffffffffffffffffffffffffffffffff1673ffffffffffffffffffffffffffffffffffffffff168152602001908152602001600020819055508173ffffffffffffffffffffffffffffffffffffffff168373ffffffffffffffffffffffffffffffffffffffff167f8c5be1e5ebec7d5bd14f71427d1e84f3dd0314c0f7b2291e5b200ac8c7c3b92583604051610a4691906113a0565b60405180910390a3505050565b6000610a5f8484610757565b90507fffffffffffffffffffffffffffffffffffffffffffffffffffffffffffffffff8114610ad95781811015610acb576040517f08c379a0000000000000000000000000000000000000000000000000000000008152600401610ac2906118cc565b60405180910390fd5b610ad8848484840361088a565b5b50505050565b600073ffffffffffffffffffffffffffffffffffffffff168373ffffffffffffffffffffffffffffffffffffffff1603610b4e576040517f08c379a0000000000000000000000000000000000000000000000000000000008152600401610b459061195e565b60405180910390fd5b600073ffffffffffffffffffffffffffffffffffffffff168273ffffffffffffffffffffffffffffffffffffffff1603610bbd576040517f08c379a0000000000000000000000000000000000000000000000000000000008152600401610bb4906119f0565b60405180910390fd5b610bc88383836111bc565b60008060008573ffffffffffffffffffffffffffffffffffffffff1673ffffffffffffffffffffffffffffffffffffffff16815260200190815260200160002054905081811015610c4e576040517f08c379a0000000000000000000000000000000000000000000000000000000008152600401610c4590611a82565b60405180910390fd5b8181036000808673ffffffffffffffffffffffffffffffffffffffff1673ffffffffffffffffffffffffffffffffffffffff16815260200190815260200160002081905550816000808573ffffffffffffffffffffffffffffffffffffffff1673ffffffffffffffffffffffffffffffffffffffff168152602001908152602001600020600082825401925050819055508273ffffffffffffffffffffffffffffffffffffffff168473ffffffffffffffffffffffffffffffffffffffff167fddf252ad1be2c89b69c2b068fc378daa952ba7f163c4a11628f55a4df523b3ef84604051610d3c91906113a0565b60405180910390a3610d4f8484846111c1565b50505050565b610d5d610882565b73ffffffffffffffffffffffffffffffffffffffff16610d7b610601565b73ffffffffffffffffffffffffffffffffffffffff1614610dd1576040517f08c379a0000000000000000000000000000000000000000000000000000000008152600401610dc890611aee565b60405180910390fd5b565b600073ffffffffffffffffffffffffffffffffffffffff168273ffffffffffffffffffffffffffffffffffffffff1603610e42576040517f08c379a0000000000000000000000000000000000000000000000000000000008152600401610e3990611b5a565b60405180910390fd5b610e4e600083836111bc565b8060026000828254610e609190611598565b92505081905550806000808473ffffffffffffffffffffffffffffffffffffffff1673ffffffffffffffffffffffffffffffffffffffff168152602001908152602001600020600082825401925050819055508173ffffffffffffffffffffffffffffffffffffffff16600073ffffffffffffffffffffffffffffffffffffffff167fddf252ad1be2c89b69c2b068fc378daa952ba7f163c4a11628f55a4df523b3ef83604051610f1191906113a0565b60405180910390a3610f25600083836111c1565b5050565b600073ffffffffffffffffffffffffffffffffffffffff168273ffffffffffffffffffffffffffffffffffffffff1603610f98576040517f08c379a0000000000000000000000000000000000000000000000000000000008152600401610f8f90611bec565b60405180910390fd5b610fa4826000836111bc565b60008060008473ffffffffffffffffffffffffffffffffffffffff1673ffffffffffffffffffffffffffffffffffffffff1681526020019081526020016000205490508181101561102a576040517f08c379a000000000000000000000000000000000000000000000000000000000815260040161102190611c7e565b60405180910390fd5b8181036000808573ffffffffffffffffffffffffffffffffffffffff1673ffffffffffffffffffffffffffffffffffffffff1681526020019081526020016000208190555081600260008282540392505081905550600073ffffffffffffffffffffffffffffffffffffffff168373ffffffffffffffffffffffffffffffffffffffff167fddf252ad1be2c89b69c2b068fc378daa952ba7f163c4a11628f55a4df523b3ef846040516110dd91906113a0565b60405180910390a36110f1836000846111c1565b505050565b6000600560009054906101000a900473ffffffffffffffffffffffffffffffffffffffff16905081600560006101000a81548173ffffffffffffffffffffffffffffffffffffffff021916908373ffffffffffffffffffffffffffffffffffffffff1602179055508173ffffffffffffffffffffffffffffffffffffffff168173ffffffffffffffffffffffffffffffffffffffff167f8be0079c531659141344cd1fd0a4f28419497f9722a3daafe3b4186f6b6457e060405160405180910390a35050565b505050565b505050565b6111ce611c9e565b565b600081519050919050565b600082825260208201905092915050565b60005b8381101561120a5780820151818401526020810190506111ef565b60008484015250505050565b6000601f19601f8301169050919050565b6000611232826111d0565b61123c81856111db565b935061124c8185602086016111ec565b61125581611216565b840191505092915050565b6000602082019050818103600083015261127a8184611227565b905092915050565b600080fd5b600073ffffffffffffffffffffffffffffffffffffffff82169050919050565b60006112b282611287565b9050919050565b6112c2816112a7565b81146112cd57600080fd5b50565b6000813590506112df816112b9565b92915050565b6000819050919050565b6112f8816112e5565b811461130357600080fd5b50565b600081359050611315816112ef565b92915050565b6000806040838503121561133257611331611282565b5b6000611340858286016112d0565b925050602061135185828601611306565b9150509250929050565b60008115159050919050565b6113708161135b565b82525050565b600060208201905061138b6000830184611367565b92915050565b61139a816112e5565b82525050565b60006020820190506113b56000830184611391565b92915050565b6000806000606084860312156113d4576113d3611282565b5b60006113e2868287016112d0565b93505060206113f3868287016112d0565b925050604061140486828701611306565b9150509250925092565b600060ff82169050919050565b6114248161140e565b82525050565b600060208201905061143f600083018461141b565b92915050565b60006020828403121561145b5761145a611282565b5b600061146984828501611306565b91505092915050565b60006020828403121561148857611487611282565b5b6000611496848285016112d0565b91505092915050565b6114a8816112a7565b82525050565b60006020820190506114c3600083018461149f565b92915050565b600080604083850312156114e0576114df611282565b5b60006114ee858286016112d0565b92505060206114ff858286016112d0565b9150509250929050565b7f4e487b7100000000000000000000000000000000000000000000000000000000600052602260045260246000fd5b6000600282049050600182168061155057607f821691505b60208210810361156357611562611509565b5b50919050565b7f4e487b7100000000000000000000000000000000000000000000000000000000600052601160045260246000fd5b60006115a3826112e5565b91506115ae836112e5565b92508282019050808211156115c6576115c5611569565b5b92915050565b7f466c6f7070793a20636170206578636565646564000000000000000000000000600082015250565b60006116026014836111db565b915061160d826115cc565b602082019050919050565b60006020820190508181036000830152611631816115f5565b9050919050565b7f45524332303a2064656372656173656420616c6c6f77616e63652062656c6f7760008201527f207a65726f000000000000000000000000000000000000000000000000000000602082015250565b60006116946025836111db565b915061169f82611638565b604082019050919050565b600060208201905081810360008301526116c381611687565b9050919050565b7f4f776e61626c653a206e6577206f776e657220697320746865207a65726f206160008201527f6464726573730000000000000000000000000000000000000000000000000000602082015250565b60006117266026836111db565b9150611731826116ca565b604082019050919050565b6000602082019050818103600083015261175581611719565b9050919050565b7f45524332303a20617070726f76652066726f6d20746865207a65726f2061646460008201527f7265737300000000000000000000000000000000000000000000000000000000602082015250565b60006117b86024836111db565b91506117c38261175c565b604082019050919050565b600060208201905081810360008301526117e7816117ab565b9050919050565b7f45524332303a20617070726f766520746f20746865207a65726f20616464726560008201527f7373000000000000000000000000000000000000000000000000000000000000602082015250565b600061184a6022836111db565b9150611855826117ee565b604082019050919050565b600060208201905081810360008301526118798161183d565b9050919050565b7f45524332303a20696e73756666696369656e7420616c6c6f77616e6365000000600082015250565b60006118b6601d836111db565b91506118c182611880565b602082019050919050565b600060208201905081810360008301526118e5816118a9565b9050919050565b7f45524332303a207472616e736665722066726f6d20746865207a65726f20616460008201527f6472657373000000000000000000000000000000000000000000000000000000602082015250565b60006119486025836111db565b9150611953826118ec565b604082019050919050565b600060208201905081810360008301526119778161193b565b9050919050565b7f45524332303a207472616e7366657220746f20746865207a65726f206164647260008201527f6573730000000000000000000000000000000000000000000000000000000000602082015250565b60006119da6023836111db565b91506119e58261197e565b604082019050919050565b60006020820190508181036000830152611a09816119cd565b9050919050565b7f45524332303a207472616e7366657220616d6f756e742065786365656473206260008201527f616c616e63650000000000000000000000000000000000000000000000000000602082015250565b6000611a6c6026836111db565b9150611a7782611a10565b604082019050919050565b60006020820190508181036000830152611a9b81611a5f565b9050919050565b7f4f776e61626c653a2063616c6c6572206973206e6f7420746865206f776e6572600082015250565b6000611ad86020836111db565b9150611ae382611aa2565b602082019050919050565b60006020820190508181036000830152611b0781611acb565b9050919050565b7f45524332303a206d696e7420746f20746865207a65726f206164647265737300600082015250565b6000611b44601f836111db565b9150611b4f82611b0e565b602082019050919050565b60006020820190508181036000830152611b7381611b37565b9050919050565b7f45524332303a206275726e2066726f6d20746865207a65726f2061646472657360008201527f7300000000000000000000000000000000000000000000000000000000000000602082015250565b6000611bd66021836111db565b9150611be182611b7a565b604082019050919050565b60006020820190508181036000830152611c0581611bc9565b9050919050565b7f45524332303a206275726e20616d6f756e7420657863656564732062616c616e60008201527f6365000000000000000000000000000000000000000000000000000000000000602082015250565b6000611c686022836111db565b9150611c7382611c0c565b604082019050919050565b60006020820190508181036000830152611c9781611c5b565b9050919050565b7f4e487b7100000000000000000000000000000000000000000000000000000000600052605160045260246000fdfea26469706673582212201a069216671db83fb809a573855b0eb8ca2b5b026042da56e2d9bc61e6f0b0f764736f6c63430008130033",
  "linkReferences": {},
  "deployedLinkReferences": {}
}